{
  "_format": "hh-sol-artifact-1",
  "contractName": "BlockImob",
  "sourceName": "contracts/BlockImob.sol",
  "abi": [
    {
      "inputs": [
        {
          "internalType": "string",
          "name": "_name",
          "type": "string"
        },
        {
          "internalType": "string",
          "name": "_symbol",
          "type": "string"
        }
      ],
      "stateMutability": "nonpayable",
      "type": "constructor"
    },
    {
      "anonymous": false,
      "inputs": [
        {
          "indexed": true,
          "internalType": "address",
          "name": "owner",
          "type": "address"
        },
        {
          "indexed": true,
          "internalType": "address",
          "name": "spender",
          "type": "address"
        },
        {
          "indexed": true,
          "internalType": "uint256",
          "name": "id",
          "type": "uint256"
        }
      ],
      "name": "Approval",
      "type": "event"
    },
    {
      "anonymous": false,
      "inputs": [
        {
          "indexed": true,
          "internalType": "address",
          "name": "owner",
          "type": "address"
        },
        {
          "indexed": true,
          "internalType": "address",
          "name": "operator",
          "type": "address"
        },
        {
          "indexed": false,
          "internalType": "bool",
          "name": "approved",
          "type": "bool"
        }
      ],
      "name": "ApprovalForAll",
      "type": "event"
    },
    {
      "anonymous": false,
      "inputs": [
        {
          "indexed": true,
          "internalType": "address",
          "name": "from",
          "type": "address"
        },
        {
          "indexed": true,
          "internalType": "address",
          "name": "to",
          "type": "address"
        },
        {
          "indexed": true,
          "internalType": "uint256",
          "name": "id",
          "type": "uint256"
        }
      ],
      "name": "Transfer",
      "type": "event"
    },
    {
      "anonymous": false,
      "inputs": [
        {
          "indexed": true,
          "internalType": "uint256",
          "name": "tokenId",
          "type": "uint256"
        },
        {
          "indexed": true,
          "internalType": "address",
          "name": "user",
          "type": "address"
        },
        {
          "indexed": false,
          "internalType": "uint64",
          "name": "expires",
          "type": "uint64"
        }
      ],
      "name": "UpdateUser",
      "type": "event"
    },
    {
      "anonymous": false,
      "inputs": [
        {
          "indexed": true,
          "internalType": "string",
          "name": "newBaseURI",
          "type": "string"
        },
        {
          "indexed": false,
          "internalType": "string",
          "name": "newBaseURIText",
          "type": "string"
        }
      ],
      "name": "UpdatedBaseURI",
      "type": "event"
    },
    {
      "anonymous": false,
      "inputs": [
        {
          "indexed": true,
          "internalType": "uint256",
          "name": "tokenId",
          "type": "uint256"
        },
        {
          "indexed": false,
          "internalType": "enum IBlockImob.DealType",
          "name": "dealType",
          "type": "uint8"
        },
        {
          "indexed": true,
          "internalType": "address",
          "name": "dealAddress",
          "type": "address"
        },
        {
          "indexed": true,
          "internalType": "address",
          "name": "fiiAddress",
          "type": "address"
        }
      ],
      "name": "UpdatedTokenDeal",
      "type": "event"
    },
    {
      "anonymous": false,
      "inputs": [
        {
          "indexed": true,
          "internalType": "uint256",
          "name": "tokenId",
          "type": "uint256"
        },
        {
          "indexed": true,
          "internalType": "string",
          "name": "newURI",
          "type": "string"
        },
        {
          "indexed": false,
          "internalType": "string",
          "name": "newURIText",
          "type": "string"
        },
        {
          "indexed": false,
          "internalType": "string",
          "name": "newValue",
          "type": "string"
        }
      ],
      "name": "UpdatedTokenURI",
      "type": "event"
    },
    {
      "inputs": [
        {
          "internalType": "address",
          "name": "",
          "type": "address"
        }
      ],
      "name": "allowed",
      "outputs": [
        {
          "internalType": "bool",
          "name": "",
          "type": "bool"
        }
      ],
      "stateMutability": "view",
      "type": "function"
    },
    {
      "inputs": [
        {
          "internalType": "address",
          "name": "spender",
          "type": "address"
        },
        {
          "internalType": "uint256",
          "name": "id",
          "type": "uint256"
        }
      ],
      "name": "approve",
      "outputs": [],
      "stateMutability": "nonpayable",
      "type": "function"
    },
    {
      "inputs": [
        {
          "internalType": "address",
          "name": "owner",
          "type": "address"
        }
      ],
      "name": "balanceOf",
      "outputs": [
        {
          "internalType": "uint256",
          "name": "",
          "type": "uint256"
        }
      ],
      "stateMutability": "view",
      "type": "function"
    },
    {
      "inputs": [],
      "name": "baseURI",
      "outputs": [
        {
          "internalType": "string",
          "name": "",
          "type": "string"
        }
      ],
      "stateMutability": "view",
      "type": "function"
    },
    {
      "inputs": [
        {
          "internalType": "uint256",
          "name": "_tokenId",
          "type": "uint256"
        }
      ],
      "name": "burn",
      "outputs": [],
      "stateMutability": "nonpayable",
      "type": "function"
    },
    {
      "inputs": [
        {
          "internalType": "uint256",
          "name": "",
          "type": "uint256"
        }
      ],
      "name": "getApproved",
      "outputs": [
        {
          "internalType": "address",
          "name": "",
          "type": "address"
        }
      ],
      "stateMutability": "view",
      "type": "function"
    },
    {
      "inputs": [
        {
          "internalType": "address",
          "name": "",
          "type": "address"
        },
        {
          "internalType": "address",
          "name": "",
          "type": "address"
        }
      ],
      "name": "isApprovedForAll",
      "outputs": [
        {
          "internalType": "bool",
          "name": "",
          "type": "bool"
        }
      ],
      "stateMutability": "view",
      "type": "function"
    },
    {
      "inputs": [
        {
          "internalType": "address",
          "name": "_owner",
          "type": "address"
        },
        {
          "internalType": "string",
          "name": "_uri",
          "type": "string"
        },
        {
          "internalType": "string",
          "name": "_district",
          "type": "string"
        },
        {
          "internalType": "uint256",
          "name": "_registry",
          "type": "uint256"
        }
      ],
      "name": "mint",
      "outputs": [],
      "stateMutability": "nonpayable",
      "type": "function"
    },
    {
      "inputs": [],
      "name": "name",
      "outputs": [
        {
          "internalType": "string",
          "name": "",
          "type": "string"
        }
      ],
      "stateMutability": "view",
      "type": "function"
    },
    {
      "inputs": [],
      "name": "nextTokenId",
      "outputs": [
        {
          "internalType": "uint256",
          "name": "",
          "type": "uint256"
        }
      ],
      "stateMutability": "view",
      "type": "function"
    },
    {
      "inputs": [
        {
          "internalType": "uint256",
          "name": "id",
          "type": "uint256"
        }
      ],
      "name": "ownerOf",
      "outputs": [
        {
          "internalType": "address",
          "name": "owner",
          "type": "address"
        }
      ],
      "stateMutability": "view",
      "type": "function"
    },
    {
      "inputs": [
        {
          "internalType": "string",
          "name": "",
          "type": "string"
        },
        {
          "internalType": "uint256",
          "name": "",
          "type": "uint256"
        }
      ],
      "name": "queryToTokenId",
      "outputs": [
        {
          "internalType": "uint256",
          "name": "",
          "type": "uint256"
        }
      ],
      "stateMutability": "view",
      "type": "function"
    },
    {
      "inputs": [
        {
          "internalType": "address",
          "name": "_party",
          "type": "address"
        }
      ],
      "name": "returnAllowed",
      "outputs": [
        {
          "internalType": "bool",
          "name": "",
          "type": "bool"
        }
      ],
      "stateMutability": "view",
      "type": "function"
    },
    {
      "inputs": [
        {
          "internalType": "uint256",
          "name": "_tokenId",
          "type": "uint256"
        }
      ],
      "name": "returnFiiAddress",
      "outputs": [
        {
          "internalType": "address",
          "name": "",
          "type": "address"
        }
      ],
      "stateMutability": "view",
      "type": "function"
    },
    {
      "inputs": [
        {
          "internalType": "address",
          "name": "from",
          "type": "address"
        },
        {
          "internalType": "address",
          "name": "to",
          "type": "address"
        },
        {
          "internalType": "uint256",
          "name": "id",
          "type": "uint256"
        }
      ],
      "name": "safeTransferFrom",
      "outputs": [],
      "stateMutability": "nonpayable",
      "type": "function"
    },
    {
      "inputs": [
        {
          "internalType": "address",
          "name": "from",
          "type": "address"
        },
        {
          "internalType": "address",
          "name": "to",
          "type": "address"
        },
        {
          "internalType": "uint256",
          "name": "id",
          "type": "uint256"
        },
        {
          "internalType": "bytes",
          "name": "data",
          "type": "bytes"
        }
      ],
      "name": "safeTransferFrom",
      "outputs": [],
      "stateMutability": "nonpayable",
      "type": "function"
    },
    {
      "inputs": [
        {
          "internalType": "address",
          "name": "operator",
          "type": "address"
        },
        {
          "internalType": "bool",
          "name": "approved",
          "type": "bool"
        }
      ],
      "name": "setApprovalForAll",
      "outputs": [],
      "stateMutability": "nonpayable",
      "type": "function"
    },
    {
      "inputs": [
        {
          "internalType": "string",
          "name": "_newBaseURI",
          "type": "string"
        }
      ],
      "name": "setBaseURI",
      "outputs": [],
      "stateMutability": "nonpayable",
      "type": "function"
    },
    {
      "inputs": [
        {
          "internalType": "address",
          "name": "_operator",
          "type": "address"
        },
        {
          "internalType": "bool",
          "name": "_approved",
          "type": "bool"
        }
      ],
      "name": "setOperator",
      "outputs": [],
      "stateMutability": "nonpayable",
      "type": "function"
    },
    {
      "inputs": [
        {
          "internalType": "uint256",
          "name": "_tokenId",
          "type": "uint256"
        },
        {
          "internalType": "string",
          "name": "_uri",
          "type": "string"
        },
        {
          "internalType": "string",
          "name": "_newValue",
          "type": "string"
        }
      ],
      "name": "setTokenURI",
      "outputs": [],
      "stateMutability": "nonpayable",
      "type": "function"
    },
    {
      "inputs": [
        {
          "internalType": "uint256",
          "name": "tokenId",
          "type": "uint256"
        },
        {
          "internalType": "address",
          "name": "user",
          "type": "address"
        },
        {
          "internalType": "uint64",
          "name": "expires",
          "type": "uint64"
        }
      ],
      "name": "setUser",
      "outputs": [],
      "stateMutability": "nonpayable",
      "type": "function"
    },
    {
      "inputs": [
        {
          "internalType": "bytes4",
          "name": "interfaceId",
          "type": "bytes4"
        }
      ],
      "name": "supportsInterface",
      "outputs": [
        {
          "internalType": "bool",
          "name": "",
          "type": "bool"
        }
      ],
      "stateMutability": "view",
      "type": "function"
    },
    {
      "inputs": [],
      "name": "symbol",
      "outputs": [
        {
          "internalType": "string",
          "name": "",
          "type": "string"
        }
      ],
      "stateMutability": "view",
      "type": "function"
    },
    {
      "inputs": [
        {
          "internalType": "uint256",
          "name": "",
          "type": "uint256"
        }
      ],
      "name": "tokenIdToDeal",
      "outputs": [
        {
          "internalType": "enum IBlockImob.DealType",
          "name": "dealType",
          "type": "uint8"
        },
        {
          "internalType": "address",
          "name": "dealAddress",
          "type": "address"
        },
        {
          "internalType": "address",
          "name": "fiiAddress",
          "type": "address"
        }
      ],
      "stateMutability": "view",
      "type": "function"
    },
    {
      "inputs": [
        {
          "internalType": "uint256",
          "name": "",
          "type": "uint256"
        }
      ],
      "name": "tokenIdToQuery",
      "outputs": [
        {
          "internalType": "string",
          "name": "district",
          "type": "string"
        },
        {
          "internalType": "uint256",
          "name": "registry",
          "type": "uint256"
        }
      ],
      "stateMutability": "view",
      "type": "function"
    },
    {
      "inputs": [
        {
          "internalType": "uint256",
          "name": "",
          "type": "uint256"
        }
      ],
      "name": "tokenIdToURI",
      "outputs": [
        {
          "internalType": "string",
          "name": "",
          "type": "string"
        }
      ],
      "stateMutability": "view",
      "type": "function"
    },
    {
      "inputs": [
        {
          "internalType": "uint256",
          "name": "_tokenId",
          "type": "uint256"
        }
      ],
      "name": "tokenURI",
      "outputs": [
        {
          "internalType": "string",
          "name": "",
          "type": "string"
        }
      ],
      "stateMutability": "view",
      "type": "function"
    },
    {
      "inputs": [
        {
          "internalType": "address",
          "name": "from",
          "type": "address"
        },
        {
          "internalType": "address",
          "name": "to",
          "type": "address"
        },
        {
          "internalType": "uint256",
          "name": "id",
          "type": "uint256"
        }
      ],
      "name": "transferFrom",
      "outputs": [],
      "stateMutability": "nonpayable",
      "type": "function"
    },
    {
      "inputs": [
        {
          "internalType": "uint256",
          "name": "_tokenId",
          "type": "uint256"
        },
        {
          "internalType": "enum IBlockImob.DealType",
          "name": "_dealType",
          "type": "uint8"
        },
        {
          "internalType": "address",
          "name": "_dealAddress",
          "type": "address"
        },
        {
          "internalType": "address",
          "name": "_fiiAddress",
          "type": "address"
        }
      ],
      "name": "updateTokenDeal",
      "outputs": [],
      "stateMutability": "nonpayable",
      "type": "function"
    },
    {
      "inputs": [
        {
          "internalType": "string",
          "name": "_district",
          "type": "string"
        },
        {
          "internalType": "uint256",
          "name": "_registry",
          "type": "uint256"
        }
      ],
      "name": "uriFromQuery",
      "outputs": [
        {
          "internalType": "string",
          "name": "",
          "type": "string"
        }
      ],
      "stateMutability": "view",
      "type": "function"
    },
    {
      "inputs": [
        {
          "internalType": "uint256",
          "name": "tokenId",
          "type": "uint256"
        }
      ],
      "name": "userExpires",
      "outputs": [
        {
          "internalType": "uint256",
          "name": "",
          "type": "uint256"
        }
      ],
      "stateMutability": "view",
      "type": "function"
    },
    {
      "inputs": [
        {
          "internalType": "uint256",
          "name": "tokenId",
          "type": "uint256"
        }
      ],
      "name": "userOf",
      "outputs": [
        {
          "internalType": "address",
          "name": "",
          "type": "address"
        }
      ],
      "stateMutability": "view",
      "type": "function"
    }
  ],
  "bytecode": "0x60806040526001600e553480156200001657600080fd5b506040516200296d3803806200296d833981016040819052620000399162000150565b60016000819055829082908290829062000054838262000249565b50600262000063828262000249565b5050336000908152600860205260409020805460ff1916600117905550620003159350505050565b634e487b7160e01b600052604160045260246000fd5b600082601f830112620000b357600080fd5b81516001600160401b0380821115620000d057620000d06200008b565b604051601f8301601f19908116603f01168101908282118183101715620000fb57620000fb6200008b565b816040528381526020925086838588010111156200011857600080fd5b600091505b838210156200013c57858201830151818301840152908201906200011d565b600093810190920192909252949350505050565b600080604083850312156200016457600080fd5b82516001600160401b03808211156200017c57600080fd5b6200018a86838701620000a1565b93506020850151915080821115620001a157600080fd5b50620001b085828601620000a1565b9150509250929050565b600181811c90821680620001cf57607f821691505b602082108103620001f057634e487b7160e01b600052602260045260246000fd5b50919050565b601f8211156200024457600081815260208120601f850160051c810160208610156200021f5750805b601f850160051c820191505b8181101562000240578281556001016200022b565b5050505b505050565b81516001600160401b038111156200026557620002656200008b565b6200027d81620002768454620001ba565b84620001f6565b602080601f831160018114620002b557600084156200029c5750858301515b600019600386901b1c1916600185901b17855562000240565b600085815260208120601f198616915b82811015620002e657888601518255948401946001909101908401620002c5565b5085821015620003055787850151600019600388901b60f8161c191681555b5050505050600190811b01905550565b61264880620003256000396000f3fe608060405234801561001057600080fd5b50600436106101f05760003560e01c806377002ada1161010f578063b88d4fde116100a2578063d6dbfadc11610071578063d6dbfadc146104c6578063e030565e146104e7578063e5617f9b146104fa578063e985e9c51461054757600080fd5b8063b88d4fde1461046a578063c2f1f14a1461047d578063c87b56dd14610490578063d63a8e11146104a357600080fd5b806395d89b41116100de57806395d89b4114610410578063a129abcd14610418578063a22cb46514610444578063b1ef57291461045757600080fd5b806377002ada1461038d57806377f06adf146103b9578063853d42ad146103cc5780638fc88c48146103df57600080fd5b806342966c68116101875780636352211e116101565780636352211e146103565780636c0360eb1461036957806370a082311461037157806375794a3c1461038457600080fd5b806342966c68146102d4578063431a2dcf146102e7578063558a72971461033057806355f804b31461034357600080fd5b8063095ea7b3116101c3578063095ea7b31461028657806323b872dd1461029b5780632944dbf0146102ae57806342842e0e146102c157600080fd5b806301ffc9a7146101f55780630221e7851461021d57806306fdde031461023d578063081812fc14610245575b600080fd5b610208610203366004611e04565b610575565b60405190151581526020015b60405180910390f35b61023061022b366004611e21565b6105b9565b6040516102149190611e8a565b610230610653565b61026e610253366004611e21565b6005602052600090815260409020546001600160a01b031681565b6040516001600160a01b039091168152602001610214565b610299610294366004611eb4565b610660565b005b6102996102a9366004611ede565b610756565b6102996102bc366004611f1a565b61095d565b6102996102cf366004611ede565b610b0e565b6102996102e2366004611e21565b610c13565b6103226102f5366004612010565b8151602081840181018051600b825292820194820194909420919093529091526000908152604090205481565b604051908152602001610214565b61029961033e366004612055565b610e29565b610299610351366004612091565b610ee5565b61026e610364366004611e21565b610f9a565b610230610ff1565b61032261037f3660046120c6565b610ffe565b610322600e5481565b61026e61039b366004611e21565b6000908152600a60205260409020600101546001600160a01b031690565b6102996103c73660046120e1565b611072565b6102996103da36600461214e565b611255565b6103226103ed366004611e21565b600090815260076020526040902054600160a01b900467ffffffffffffffff1690565b610230611462565b6102086104263660046120c6565b6001600160a01b031660009081526008602052604090205460ff1690565b610299610452366004612055565b61146f565b610230610465366004612010565b6114db565b6102996104783660046121ca565b61151c565b61026e61048b366004611e21565b611616565b61023061049e366004611e21565b611661565b6102086104b13660046120c6565b60086020526000908152604090205460ff1681565b6104d96104d4366004611e21565b611792565b604051610214929190612265565b6102996104f5366004612287565b611836565b610538610508366004611e21565b600a602052600090815260409020805460019091015460ff8216916001600160a01b036101009091048116911683565b6040516102149392919061230c565b61020861055536600461233b565b600660209081526000928352604080842090915290825290205460ff1681565b60006001600160e01b031982167fad092b5c0000000000000000000000000000000000000000000000000000000014806105b357506105b382611933565b92915050565b600960205260009081526040902080546105d29061236e565b80601f01602080910402602001604051908101604052809291908181526020018280546105fe9061236e565b801561064b5780601f106106205761010080835404028352916020019161064b565b820191906000526020600020905b81548152906001019060200180831161062e57829003601f168201915b505050505081565b600180546105d29061236e565b6000818152600360205260409020546001600160a01b0316338114806106a957506001600160a01b038116600090815260066020908152604080832033845290915290205460ff165b6106fa5760405162461bcd60e51b815260206004820152600e60248201527f4e4f545f415554484f52495a454400000000000000000000000000000000000060448201526064015b60405180910390fd5b60008281526005602052604080822080546001600160a01b0319166001600160a01b0387811691821790925591518593918516917f8c5be1e5ebec7d5bd14f71427d1e84f3dd0314c0f7b2291e5b200ac8c7c3b92591a4505050565b61075e6119cc565b6000818152600360205260409020546001600160a01b038481169116146107c75760405162461bcd60e51b815260206004820152600a60248201527f57524f4e475f46524f4d0000000000000000000000000000000000000000000060448201526064016106f1565b6001600160a01b03821661081d5760405162461bcd60e51b815260206004820152601160248201527f494e56414c49445f524543495049454e5400000000000000000000000000000060448201526064016106f1565b336001600160a01b038416148061085757506001600160a01b038316600090815260066020908152604080832033845290915290205460ff165b8061087857506000818152600560205260409020546001600160a01b031633145b6108c45760405162461bcd60e51b815260206004820152600e60248201527f4e4f545f415554484f52495a454400000000000000000000000000000000000060448201526064016106f1565b6001600160a01b0380841660008181526004602090815260408083208054600019019055938616808352848320805460010190558583526003825284832080546001600160a01b03199081168317909155600590925284832080549092169091559251849392917fddf252ad1be2c89b69c2b068fc378daa952ba7f163c4a11628f55a4df523b3ef91a46109586001600055565b505050565b3360009081526008602052604090205460ff166109b55760405162461bcd60e51b8152602060048201526016602482015275109b1bd8dad25b5bd88e88139bdd08185b1b1bddd95960521b60448201526064016106f1565b83600e548110610a075760405162461bcd60e51b815260206004820152601a60248201527f426c6f636b496d6f623a20496e76616c696420746f6b656e496400000000000060448201526064016106f1565b6000858152600a60205260409020805485919060ff191660018381811115610a3157610a316122d4565b02179055506000858152600a6020526040902080547fffffffffffffffffffffff0000000000000000000000000000000000000000ff166101006001600160a01b038616021790556001846001811115610a8d57610a8d6122d4565b14610a985781610a9b565b60005b6000868152600a60205260409081902060010180546001600160a01b0319166001600160a01b03938416179055518382169185169087907f3e84f583b4b1d67a9a381a5a4390e39df6443fdb51276443304be946244702c490610aff9089906123a2565b60405180910390a45050505050565b610b166119cc565b610b21838383610756565b6001600160a01b0382163b1580610bca5750604051630a85bd0160e11b8082523360048301526001600160a01b03858116602484015260448301849052608060648401526000608484015290919084169063150b7a029060a4016020604051808303816000875af1158015610b9a573d6000803e3d6000fd5b505050506040513d601f19601f82011682018060405250810190610bbe91906123b0565b6001600160e01b031916145b610c095760405162461bcd60e51b815260206004820152601060248201526f155394d0519157d49150d2541251539560821b60448201526064016106f1565b6109586001600055565b3360009081526008602052604090205460ff16610c6b5760405162461bcd60e51b8152602060048201526016602482015275109b1bd8dad25b5bd88e88139bdd08185b1b1bddd95960521b60448201526064016106f1565b80600e548110610cbd5760405162461bcd60e51b815260206004820152601a60248201527f426c6f636b496d6f623a20496e76616c696420746f6b656e496400000000000060448201526064016106f1565b6000828152600960205260408120610cd491611d98565b6000828152600c60205260408082208151808301909252805482908290610cfa9061236e565b80601f0160208091040260200160405190810160405280929190818152602001828054610d269061236e565b8015610d735780601f10610d4857610100808354040283529160200191610d73565b820191906000526020600020905b815481529060010190602001808311610d5657829003601f168201915b505050505081526020016001820154815250509050600b8160000151604051610d9c91906123cd565b9081526040805160209281900383019020838301516000908152908352818120819055858152600c909252812090610dd48282611d98565b5060006001918201819055848152600a6020526040902080547fffffffffffffffffffffff0000000000000000000000000000000000000000001681550180546001600160a01b031916905561095883611a25565b3360009081526008602052604090205460ff16610e815760405162461bcd60e51b8152602060048201526016602482015275109b1bd8dad25b5bd88e88139bdd08185b1b1bddd95960521b60448201526064016106f1565b6001600160a01b038216610ed75760405162461bcd60e51b815260206004820152601b60248201527f426c6f636b496d6f623a20496e76616c6964206f70657261746f72000000000060448201526064016106f1565b610ee1828261146f565b5050565b3360009081526008602052604090205460ff16610f3d5760405162461bcd60e51b8152602060048201526016602482015275109b1bd8dad25b5bd88e88139bdd08185b1b1bddd95960521b60448201526064016106f1565b600d610f49828261242f565b5080604051610f5891906123cd565b60405180910390207fd2877107a884510f506ed0bd833e6601f4344691e32a0ce4bcdedb1d9d9d28e182604051610f8f9190611e8a565b60405180910390a250565b6000818152600360205260409020546001600160a01b031680610fec5760405162461bcd60e51b815260206004820152600a6024820152691393d517d3525395115160b21b60448201526064016106f1565b919050565b600d80546105d29061236e565b60006001600160a01b0382166110565760405162461bcd60e51b815260206004820152600c60248201527f5a45524f5f41444452455353000000000000000000000000000000000000000060448201526064016106f1565b506001600160a01b031660009081526004602052604090205490565b3360009081526008602052604090205460ff166110ca5760405162461bcd60e51b8152602060048201526016602482015275109b1bd8dad25b5bd88e88139bdd08185b1b1bddd95960521b60448201526064016106f1565b82600e54811061111c5760405162461bcd60e51b815260206004820152601a60248201527f426c6f636b496d6f623a20496e76616c696420746f6b656e496400000000000060448201526064016106f1565b82600081511161116e5760405162461bcd60e51b815260206004820152601760248201527f426c6f636b496d6f623a204e6f2055524920676976656e00000000000000000060448201526064016106f1565b60008351116111e55760405162461bcd60e51b815260206004820152602160248201527f426c6f636b496d6f623a204e6f2076616c75652061646465642f75706461746560448201527f640000000000000000000000000000000000000000000000000000000000000060648201526084016106f1565b60008581526009602052604090206111fd858261242f565b508360405161120c91906123cd565b6040518091039020857f25345d4e01313298e0599693574148d9f77aeb2912eead490cc5894563824bf586866040516112469291906124ef565b60405180910390a35050505050565b3360009081526008602052604090205460ff166112ad5760405162461bcd60e51b8152602060048201526016602482015275109b1bd8dad25b5bd88e88139bdd08185b1b1bddd95960521b60448201526064016106f1565b8260008151116112ff5760405162461bcd60e51b815260206004820152601760248201527f426c6f636b496d6f623a204e6f2055524920676976656e00000000000000000060448201526064016106f1565b60008351116113505760405162461bcd60e51b815260206004820152601c60248201527f426c6f636b496d6f623a204e6f20646973747269637420676976656e0000000060448201526064016106f1565b600082116113c65760405162461bcd60e51b815260206004820152602160248201527f426c6f636b496d6f623a20496e76616c6964207265676973747279206769766560448201527f6e0000000000000000000000000000000000000000000000000000000000000060648201526084016106f1565b600e80546001810190915560008181526009602052604090206113e9868261242f565b5080600b856040516113fb91906123cd565b9081526040805191829003602090810183206000888152908252828120949094558282018252878352828101879052848452600c905290912081518190611442908261242f565b506020820151816001015590505061145a8682611af2565b505050505050565b600280546105d29061236e565b3360008181526006602090815260408083206001600160a01b03871680855290835292819020805460ff191686151590811790915590519081529192917f17307eab39ab6107e8899845ad3d59bd9653f200f220920489ca2b5937696c31910160405180910390a35050565b6060611515600b846040516114f091906123cd565b9081526020016040518091039020600084815260200190815260200160002054611661565b9392505050565b6115246119cc565b61152f858585610756565b6001600160a01b0384163b15806115c65750604051630a85bd0160e11b808252906001600160a01b0386169063150b7a02906115779033908a9089908990899060040161251d565b6020604051808303816000875af1158015611596573d6000803e3d6000fd5b505050506040513d601f19601f820116820180604052508101906115ba91906123b0565b6001600160e01b031916145b6116055760405162461bcd60e51b815260206004820152601060248201526f155394d0519157d49150d2541251539560821b60448201526064016106f1565b61160f6001600055565b5050505050565b60008181526007602052604081205442600160a01b90910467ffffffffffffffff161061165957506000908152600760205260409020546001600160a01b031690565b506000919050565b606081600e5481106116b55760405162461bcd60e51b815260206004820152601a60248201527f426c6f636b496d6f623a20496e76616c696420746f6b656e496400000000000060448201526064016106f1565b600d80546116c29061236e565b1590506116f157600d836040516020016116dd929190612571565b604051602081830303815290604052611789565b6000838152600960205260409020805461170a9061236e565b80601f01602080910402602001604051908101604052809291908181526020018280546117369061236e565b80156117835780601f1061175857610100808354040283529160200191611783565b820191906000526020600020905b81548152906001019060200180831161176657829003601f168201915b50505050505b91505b50919050565b600c602052600090815260409020805481906117ad9061236e565b80601f01602080910402602001604051908101604052809291908181526020018280546117d99061236e565b80156118265780601f106117fb57610100808354040283529160200191611826565b820191906000526020600020905b81548152906001019060200180831161180957829003601f168201915b5050505050908060010154905082565b6118403384611bf3565b6118b25760405162461bcd60e51b815260206004820152603160248201527f4552433732313a207472616e736665722063616c6c6572206973206e6f74206f60448201527f776e6572206e6f7220617070726f76656400000000000000000000000000000060648201526084016106f1565b60008381526007602090815260409182902080546001600160a01b0386166001600160e01b03199091168117600160a01b67ffffffffffffffff871690810291909117835593519384529092909186917f4e06b4e7000e659094299b3533b47b6aa8ad048e95e872d23d1f4ee55af89cfe910160405180910390a350505050565b60007f01ffc9a7000000000000000000000000000000000000000000000000000000006001600160e01b03198316148061199657507f80ac58cd000000000000000000000000000000000000000000000000000000006001600160e01b03198316145b806105b35750506001600160e01b0319167f5b5e139f000000000000000000000000000000000000000000000000000000001490565b600260005403611a1e5760405162461bcd60e51b815260206004820152601f60248201527f5265656e7472616e637947756172643a207265656e7472616e742063616c6c0060448201526064016106f1565b6002600055565b6000818152600360205260409020546001600160a01b031680611a775760405162461bcd60e51b815260206004820152600a6024820152691393d517d3525395115160b21b60448201526064016106f1565b6001600160a01b038116600081815260046020908152604080832080546000190190558583526003825280832080546001600160a01b031990811690915560059092528083208054909216909155518492907fddf252ad1be2c89b69c2b068fc378daa952ba7f163c4a11628f55a4df523b3ef908390a45050565b611afa6119cc565b611b048282611c72565b6001600160a01b0382163b1580611baa5750604051630a85bd0160e11b80825233600483015260006024830181905260448301849052608060648401526084830152906001600160a01b0384169063150b7a029060a4016020604051808303816000875af1158015611b7a573d6000803e3d6000fd5b505050506040513d601f19601f82011682018060405250810190611b9e91906123b0565b6001600160e01b031916145b611be95760405162461bcd60e51b815260206004820152601060248201526f155394d0519157d49150d2541251539560821b60448201526064016106f1565b610ee16001600055565b600080611bff83610f9a565b9050806001600160a01b0316846001600160a01b03161480611c4657506001600160a01b0380821660009081526006602090815260408083209388168352929052205460ff165b80611c6a57506000838152600560205260409020546001600160a01b038581169116145b949350505050565b6001600160a01b038216611cc85760405162461bcd60e51b815260206004820152601160248201527f494e56414c49445f524543495049454e5400000000000000000000000000000060448201526064016106f1565b6000818152600360205260409020546001600160a01b031615611d2d5760405162461bcd60e51b815260206004820152600e60248201527f414c52454144595f4d494e54454400000000000000000000000000000000000060448201526064016106f1565b6001600160a01b038216600081815260046020908152604080832080546001019055848352600390915280822080546001600160a01b0319168417905551839291907fddf252ad1be2c89b69c2b068fc378daa952ba7f163c4a11628f55a4df523b3ef908290a45050565b508054611da49061236e565b6000825580601f10611db4575050565b601f016020900490600052602060002090810190611dd29190611dd5565b50565b5b80821115611dea5760008155600101611dd6565b5090565b6001600160e01b031981168114611dd257600080fd5b600060208284031215611e1657600080fd5b813561151581611dee565b600060208284031215611e3357600080fd5b5035919050565b60005b83811015611e55578181015183820152602001611e3d565b50506000910152565b60008151808452611e76816020860160208601611e3a565b601f01601f19169290920160200192915050565b6020815260006115156020830184611e5e565b80356001600160a01b0381168114610fec57600080fd5b60008060408385031215611ec757600080fd5b611ed083611e9d565b946020939093013593505050565b600080600060608486031215611ef357600080fd5b611efc84611e9d565b9250611f0a60208501611e9d565b9150604084013590509250925092565b60008060008060808587031215611f3057600080fd5b84359350602085013560028110611f4657600080fd5b9250611f5460408601611e9d565b9150611f6260608601611e9d565b905092959194509250565b634e487b7160e01b600052604160045260246000fd5b600082601f830112611f9457600080fd5b813567ffffffffffffffff80821115611faf57611faf611f6d565b604051601f8301601f19908116603f01168101908282118183101715611fd757611fd7611f6d565b81604052838152866020858801011115611ff057600080fd5b836020870160208301376000602085830101528094505050505092915050565b6000806040838503121561202357600080fd5b823567ffffffffffffffff81111561203a57600080fd5b61204685828601611f83565b95602094909401359450505050565b6000806040838503121561206857600080fd5b61207183611e9d565b91506020830135801515811461208657600080fd5b809150509250929050565b6000602082840312156120a357600080fd5b813567ffffffffffffffff8111156120ba57600080fd5b611c6a84828501611f83565b6000602082840312156120d857600080fd5b61151582611e9d565b6000806000606084860312156120f657600080fd5b83359250602084013567ffffffffffffffff8082111561211557600080fd5b61212187838801611f83565b9350604086013591508082111561213757600080fd5b5061214486828701611f83565b9150509250925092565b6000806000806080858703121561216457600080fd5b61216d85611e9d565b9350602085013567ffffffffffffffff8082111561218a57600080fd5b61219688838901611f83565b945060408701359150808211156121ac57600080fd5b506121b987828801611f83565b949793965093946060013593505050565b6000806000806000608086880312156121e257600080fd5b6121eb86611e9d565b94506121f960208701611e9d565b935060408601359250606086013567ffffffffffffffff8082111561221d57600080fd5b818801915088601f83011261223157600080fd5b81358181111561224057600080fd5b89602082850101111561225257600080fd5b9699959850939650602001949392505050565b6040815260006122786040830185611e5e565b90508260208301529392505050565b60008060006060848603121561229c57600080fd5b833592506122ac60208501611e9d565b9150604084013567ffffffffffffffff811681146122c957600080fd5b809150509250925092565b634e487b7160e01b600052602160045260246000fd5b6002811061230857634e487b7160e01b600052602160045260246000fd5b9052565b6060810161231a82866122ea565b6001600160a01b038085166020840152808416604084015250949350505050565b6000806040838503121561234e57600080fd5b61235783611e9d565b915061236560208401611e9d565b90509250929050565b600181811c9082168061238257607f821691505b60208210810361178c57634e487b7160e01b600052602260045260246000fd5b602081016105b382846122ea565b6000602082840312156123c257600080fd5b815161151581611dee565b600082516123df818460208701611e3a565b9190910192915050565b601f82111561095857600081815260208120601f850160051c810160208610156124105750805b601f850160051c820191505b8181101561145a5782815560010161241c565b815167ffffffffffffffff81111561244957612449611f6d565b61245d81612457845461236e565b846123e9565b602080601f831160018114612492576000841561247a5750858301515b600019600386901b1c1916600185901b17855561145a565b600085815260208120601f198616915b828110156124c1578886015182559484019460019091019084016124a2565b50858210156124df5787850151600019600388901b60f8161c191681555b5050505050600190811b01905550565b6040815260006125026040830185611e5e565b82810360208401526125148185611e5e565b95945050505050565b60006001600160a01b03808816835280871660208401525084604083015260806060830152826080830152828460a0840137600060a0848401015260a0601f19601f85011683010190509695505050505050565b600080845461257f8161236e565b6001828116801561259757600181146125ac576125db565b60ff19841687528215158302870194506125db565b8860005260208060002060005b858110156125d25781548a8201529084019082016125b9565b50505082870194505b5050509381527f2e6a736f6e000000000000000000000000000000000000000000000000000000602082015260250194935050505056fea26469706673582212207671d9405ac19086be603ea335763177728dea15c407e634e8b8b194462ba1b564736f6c63430008110033",
  "linkReferences": {},
  "deployedLinkReferences": {}
}