{
  "_format": "hh-sol-artifact-1",
  "contractName": "Fii",
  "sourceName": "contracts/Fii.sol",
  "abi": [
    {
      "inputs": [
        {
          "internalType": "string",
          "name": "_name",
          "type": "string"
        },
        {
          "internalType": "string",
          "name": "_symbol",
          "type": "string"
        },
        {
          "internalType": "uint8",
          "name": "_decimals",
          "type": "uint8"
        },
        {
          "internalType": "address",
          "name": "_blockImob",
          "type": "address"
        },
        {
          "internalType": "address",
          "name": "_gov",
          "type": "address"
        }
      ],
      "stateMutability": "nonpayable",
      "type": "constructor"
    },
    {
      "anonymous": false,
      "inputs": [
        {
          "indexed": true,
          "internalType": "address",
          "name": "owner",
          "type": "address"
        },
        {
          "indexed": true,
          "internalType": "address",
          "name": "spender",
          "type": "address"
        },
        {
          "indexed": false,
          "internalType": "uint256",
          "name": "amount",
          "type": "uint256"
        }
      ],
      "name": "Approval",
      "type": "event"
    },
    {
      "anonymous": false,
      "inputs": [
        {
          "indexed": true,
          "internalType": "address",
          "name": "from",
          "type": "address"
        },
        {
          "indexed": true,
          "internalType": "address",
          "name": "to",
          "type": "address"
        },
        {
          "indexed": false,
          "internalType": "uint256",
          "name": "amount",
          "type": "uint256"
        }
      ],
      "name": "Transfer",
      "type": "event"
    },
    {
      "inputs": [],
      "name": "DOMAIN_SEPARATOR",
      "outputs": [
        {
          "internalType": "bytes32",
          "name": "",
          "type": "bytes32"
        }
      ],
      "stateMutability": "view",
      "type": "function"
    },
    {
      "inputs": [
        {
          "internalType": "address",
          "name": "",
          "type": "address"
        },
        {
          "internalType": "address",
          "name": "",
          "type": "address"
        }
      ],
      "name": "allowance",
      "outputs": [
        {
          "internalType": "uint256",
          "name": "",
          "type": "uint256"
        }
      ],
      "stateMutability": "view",
      "type": "function"
    },
    {
      "inputs": [
        {
          "internalType": "address",
          "name": "spender",
          "type": "address"
        },
        {
          "internalType": "uint256",
          "name": "amount",
          "type": "uint256"
        }
      ],
      "name": "approve",
      "outputs": [
        {
          "internalType": "bool",
          "name": "",
          "type": "bool"
        }
      ],
      "stateMutability": "nonpayable",
      "type": "function"
    },
    {
      "inputs": [
        {
          "internalType": "address",
          "name": "",
          "type": "address"
        }
      ],
      "name": "balanceOf",
      "outputs": [
        {
          "internalType": "uint256",
          "name": "",
          "type": "uint256"
        }
      ],
      "stateMutability": "view",
      "type": "function"
    },
    {
      "inputs": [],
      "name": "decimals",
      "outputs": [
        {
          "internalType": "uint8",
          "name": "",
          "type": "uint8"
        }
      ],
      "stateMutability": "view",
      "type": "function"
    },
    {
      "inputs": [],
      "name": "killFii",
      "outputs": [],
      "stateMutability": "nonpayable",
      "type": "function"
    },
    {
      "inputs": [
        {
          "internalType": "uint256",
          "name": "_amount",
          "type": "uint256"
        }
      ],
      "name": "mintShare",
      "outputs": [],
      "stateMutability": "nonpayable",
      "type": "function"
    },
    {
      "inputs": [],
      "name": "name",
      "outputs": [
        {
          "internalType": "string",
          "name": "",
          "type": "string"
        }
      ],
      "stateMutability": "view",
      "type": "function"
    },
    {
      "inputs": [
        {
          "internalType": "address",
          "name": "",
          "type": "address"
        }
      ],
      "name": "nonces",
      "outputs": [
        {
          "internalType": "uint256",
          "name": "",
          "type": "uint256"
        }
      ],
      "stateMutability": "view",
      "type": "function"
    },
    {
      "inputs": [
        {
          "internalType": "address",
          "name": "owner",
          "type": "address"
        },
        {
          "internalType": "address",
          "name": "spender",
          "type": "address"
        },
        {
          "internalType": "uint256",
          "name": "value",
          "type": "uint256"
        },
        {
          "internalType": "uint256",
          "name": "deadline",
          "type": "uint256"
        },
        {
          "internalType": "uint8",
          "name": "v",
          "type": "uint8"
        },
        {
          "internalType": "bytes32",
          "name": "r",
          "type": "bytes32"
        },
        {
          "internalType": "bytes32",
          "name": "s",
          "type": "bytes32"
        }
      ],
      "name": "permit",
      "outputs": [],
      "stateMutability": "nonpayable",
      "type": "function"
    },
    {
      "inputs": [],
      "name": "sharePrice",
      "outputs": [
        {
          "internalType": "uint256",
          "name": "",
          "type": "uint256"
        }
      ],
      "stateMutability": "view",
      "type": "function"
    },
    {
      "inputs": [],
      "name": "symbol",
      "outputs": [
        {
          "internalType": "string",
          "name": "",
          "type": "string"
        }
      ],
      "stateMutability": "view",
      "type": "function"
    },
    {
      "inputs": [],
      "name": "totalShares",
      "outputs": [
        {
          "internalType": "uint256",
          "name": "",
          "type": "uint256"
        }
      ],
      "stateMutability": "view",
      "type": "function"
    },
    {
      "inputs": [],
      "name": "totalSupply",
      "outputs": [
        {
          "internalType": "uint256",
          "name": "",
          "type": "uint256"
        }
      ],
      "stateMutability": "view",
      "type": "function"
    },
    {
      "inputs": [
        {
          "internalType": "address",
          "name": "to",
          "type": "address"
        },
        {
          "internalType": "uint256",
          "name": "amount",
          "type": "uint256"
        }
      ],
      "name": "transfer",
      "outputs": [
        {
          "internalType": "bool",
          "name": "",
          "type": "bool"
        }
      ],
      "stateMutability": "nonpayable",
      "type": "function"
    },
    {
      "inputs": [
        {
          "internalType": "address",
          "name": "from",
          "type": "address"
        },
        {
          "internalType": "address",
          "name": "to",
          "type": "address"
        },
        {
          "internalType": "uint256",
          "name": "amount",
          "type": "uint256"
        }
      ],
      "name": "transferFrom",
      "outputs": [
        {
          "internalType": "bool",
          "name": "",
          "type": "bool"
        }
      ],
      "stateMutability": "nonpayable",
      "type": "function"
    }
  ],
  "bytecode": "0x6101006040523480156200001257600080fd5b506040516200150738038062001507833981016040819052620000359162000219565b848484600062000046848262000351565b50600162000055838262000351565b5060ff81166080524660a0526200006b6200009b565b60c0525050600680546001600160a01b0319166001600160a01b03948516179055501660e052506200049b915050565b60007f8b73c3c69bb8fe3d512ecc4cf759cc79239f7b179b0ffacaa9a75d522b39400f6000604051620000cf91906200041d565b6040805191829003822060208301939093528101919091527fc89efdaa54c0f20c7adf612882df0950f5a951637e0307cdcb4c672f298b8bc660608201524660808201523060a082015260c00160405160208183030381529060405280519060200120905090565b634e487b7160e01b600052604160045260246000fd5b600082601f8301126200015f57600080fd5b81516001600160401b03808211156200017c576200017c62000137565b604051601f8301601f19908116603f01168101908282118183101715620001a757620001a762000137565b81604052838152602092508683858801011115620001c457600080fd5b600091505b83821015620001e85785820183015181830184015290820190620001c9565b600093810190920192909252949350505050565b80516001600160a01b03811681146200021457600080fd5b919050565b600080600080600060a086880312156200023257600080fd5b85516001600160401b03808211156200024a57600080fd5b6200025889838a016200014d565b965060208801519150808211156200026f57600080fd5b506200027e888289016200014d565b945050604086015160ff811681146200029657600080fd5b9250620002a660608701620001fc565b9150620002b660808701620001fc565b90509295509295909350565b600181811c90821680620002d757607f821691505b602082108103620002f857634e487b7160e01b600052602260045260246000fd5b50919050565b601f8211156200034c57600081815260208120601f850160051c81016020861015620003275750805b601f850160051c820191505b81811015620003485782815560010162000333565b5050505b505050565b81516001600160401b038111156200036d576200036d62000137565b62000385816200037e8454620002c2565b84620002fe565b602080601f831160018114620003bd5760008415620003a45750858301515b600019600386901b1c1916600185901b17855562000348565b600085815260208120601f198616915b82811015620003ee57888601518255948401946001909101908401620003cd565b50858210156200040d5787850151600019600388901b60f8161c191681555b5050505050600190811b01905550565b60008083546200042d81620002c2565b600182811680156200044857600181146200045e576200048f565b60ff19841687528215158302870194506200048f565b8760005260208060002060005b85811015620004865781548a8201529084019082016200046b565b50505082870194505b50929695505050505050565b60805160a05160c05160e05161102b620004dc60003960008181610b2b0152610bae0152600061049f0152600061046a01526000610175015261102b6000f3fe608060405234801561001057600080fd5b50600436106101005760003560e01c80637ecebe0011610097578063b58b6e2911610066578063b58b6e291461021e578063d505accf14610233578063dd62ed3e14610246578063dece7af41461027157600080fd5b80637ecebe00146101da57806387269729146101fa57806395d89b4114610203578063a9059cbb1461020b57600080fd5b8063313ce567116100d3578063313ce567146101705780633644e515146101a95780633a98ef39146101b157806370a08231146101ba57600080fd5b806306fdde0314610105578063095ea7b31461012357806318160ddd1461014657806323b872dd1461015d575b600080fd5b61010d610279565b60405161011a9190610cdd565b60405180910390f35b610136610131366004610d47565b610307565b604051901515815260200161011a565b61014f60025481565b60405190815260200161011a565b61013661016b366004610d71565b610374565b6101977f000000000000000000000000000000000000000000000000000000000000000081565b60405160ff909116815260200161011a565b61014f610466565b61014f60085481565b61014f6101c8366004610dad565b60036020526000908152604090205481565b61014f6101e8366004610dad565b60056020526000908152604090205481565b61014f60075481565b61010d6104c1565b610136610219366004610d47565b6104ce565b61023161022c366004610dcf565b610546565b005b610231610241366004610de8565b6107d3565b61014f610254366004610e5b565b600460209081526000928352604080842090915290825290205481565b610231610a41565b6000805461028690610e8e565b80601f01602080910402602001604051908101604052809291908181526020018280546102b290610e8e565b80156102ff5780601f106102d4576101008083540402835291602001916102ff565b820191906000526020600020905b8154815290600101906020018083116102e257829003601f168201915b505050505081565b3360008181526004602090815260408083206001600160a01b038716808552925280832085905551919290917f8c5be1e5ebec7d5bd14f71427d1e84f3dd0314c0f7b2291e5b200ac8c7c3b925906103629086815260200190565b60405180910390a35060015b92915050565b6001600160a01b038316600090815260046020908152604080832033845290915281205460001981146103d0576103ab8382610ede565b6001600160a01b03861660009081526004602090815260408083203384529091529020555b6001600160a01b038516600090815260036020526040812080548592906103f8908490610ede565b90915550506001600160a01b03808516600081815260036020526040908190208054870190555190918716907fddf252ad1be2c89b69c2b068fc378daa952ba7f163c4a11628f55a4df523b3ef906104539087815260200190565b60405180910390a3506001949350505050565b60007f0000000000000000000000000000000000000000000000000000000000000000461461049c57610497610bd8565b905090565b507f000000000000000000000000000000000000000000000000000000000000000090565b6001805461028690610e8e565b336000908152600360205260408120805483919083906104ef908490610ede565b90915550506001600160a01b038316600081815260036020526040908190208054850190555133907fddf252ad1be2c89b69c2b068fc378daa952ba7f163c4a11628f55a4df523b3ef906103629086815260200190565b600854816002546105579190610ef1565b11156105aa5760405162461bcd60e51b815260206004820152601b60248201527f4669693a2043616e2774206d696e74206d6f726520736861726573000000000060448201526064015b60405180910390fd5b806007546105b89190610f04565b6040516370a0823160e01b815233600482015273c5375c73a627105eb4df00867717f6e301966c32906370a0823190602401602060405180830381865afa158015610607573d6000803e3d6000fd5b505050506040513d601f19601f8201168201806040525081019061062b9190610f1b565b10156106795760405162461bcd60e51b815260206004820152601d60248201527f4669693a204e6f7420656e6f75676820746f6b656e7320746f2062757900000060448201526064016105a1565b806007546106879190610f04565b6040517fdd62ed3e00000000000000000000000000000000000000000000000000000000815233600482015230602482015273c5375c73a627105eb4df00867717f6e301966c329063dd62ed3e90604401602060405180830381865afa1580156106f5573d6000803e3d6000fd5b505050506040513d601f19601f820116820180604052508101906107199190610f1b565b10156107675760405162461bcd60e51b815260206004820152601960248201527f4669693a20416c6c6f77616e6365206e6f7420656e6f7567680000000000000060448201526064016105a1565b60006107763330600754610374565b9050806107c55760405162461bcd60e51b815260206004820152601d60248201527f4669693a205075726368617365205472616e73666572204661696c656400000060448201526064016105a1565b6107cf3383610c72565b5050565b428410156108235760405162461bcd60e51b815260206004820152601760248201527f5045524d49545f444541444c494e455f4558504952454400000000000000000060448201526064016105a1565b6000600161082f610466565b6001600160a01b038a811660008181526005602090815260409182902080546001810190915582517f6e71edae12b1b97f4d1f60370fef10105fa2faae0126114a169c64845d6126c98184015280840194909452938d166060840152608083018c905260a083019390935260c08083018b90528151808403909101815260e0830190915280519201919091207f19010000000000000000000000000000000000000000000000000000000000006101008301526101028201929092526101228101919091526101420160408051601f198184030181528282528051602091820120600084529083018083525260ff871690820152606081018590526080810184905260a0016020604051602081039080840390855afa158015610956573d6000803e3d6000fd5b5050604051601f1901519150506001600160a01b0381161580159061098c5750876001600160a01b0316816001600160a01b0316145b6109d85760405162461bcd60e51b815260206004820152600e60248201527f494e56414c49445f5349474e455200000000000000000000000000000000000060448201526064016105a1565b6001600160a01b0390811660009081526004602090815260408083208a8516808552908352928190208990555188815291928a16917f8c5be1e5ebec7d5bd14f71427d1e84f3dd0314c0f7b2291e5b200ac8c7c3b925910160405180910390a350505050505050565b6006546040517fa129abcd0000000000000000000000000000000000000000000000000000000081523360048201526001600160a01b039091169063a129abcd90602401602060405180830381865afa158015610aa2573d6000803e3d6000fd5b505050506040513d601f19601f82011682018060405250810190610ac69190610f34565b610b125760405162461bcd60e51b815260206004820152601060248201527f4669693a204e6f7420616c6c6f7765640000000000000000000000000000000060448201526064016105a1565b6040516370a0823160e01b8152306004820152610bab907f00000000000000000000000000000000000000000000000000000000000000009073c5375c73a627105eb4df00867717f6e301966c32906370a0823190602401602060405180830381865afa158015610b87573d6000803e3d6000fd5b505050506040513d601f19601f820116820180604052508101906102199190610f1b565b507f00000000000000000000000000000000000000000000000000000000000000006001600160a01b0316ff5b60007f8b73c3c69bb8fe3d512ecc4cf759cc79239f7b179b0ffacaa9a75d522b39400f6000604051610c0a9190610f56565b6040805191829003822060208301939093528101919091527fc89efdaa54c0f20c7adf612882df0950f5a951637e0307cdcb4c672f298b8bc660608201524660808201523060a082015260c00160405160208183030381529060405280519060200120905090565b8060026000828254610c849190610ef1565b90915550506001600160a01b0382166000818152600360209081526040808320805486019055518481527fddf252ad1be2c89b69c2b068fc378daa952ba7f163c4a11628f55a4df523b3ef910160405180910390a35050565b600060208083528351808285015260005b81811015610d0a57858101830151858201604001528201610cee565b506000604082860101526040601f19601f8301168501019250505092915050565b80356001600160a01b0381168114610d4257600080fd5b919050565b60008060408385031215610d5a57600080fd5b610d6383610d2b565b946020939093013593505050565b600080600060608486031215610d8657600080fd5b610d8f84610d2b565b9250610d9d60208501610d2b565b9150604084013590509250925092565b600060208284031215610dbf57600080fd5b610dc882610d2b565b9392505050565b600060208284031215610de157600080fd5b5035919050565b600080600080600080600060e0888a031215610e0357600080fd5b610e0c88610d2b565b9650610e1a60208901610d2b565b95506040880135945060608801359350608088013560ff81168114610e3e57600080fd5b9699959850939692959460a0840135945060c09093013592915050565b60008060408385031215610e6e57600080fd5b610e7783610d2b565b9150610e8560208401610d2b565b90509250929050565b600181811c90821680610ea257607f821691505b602082108103610ec257634e487b7160e01b600052602260045260246000fd5b50919050565b634e487b7160e01b600052601160045260246000fd5b8181038181111561036e5761036e610ec8565b8082018082111561036e5761036e610ec8565b808202811582820484141761036e5761036e610ec8565b600060208284031215610f2d57600080fd5b5051919050565b600060208284031215610f4657600080fd5b81518015158114610dc857600080fd5b600080835481600182811c915080831680610f7257607f831692505b60208084108203610f9157634e487b7160e01b86526022600452602486fd5b818015610fa55760018114610fba57610fe7565b60ff1986168952841515850289019650610fe7565b60008a81526020902060005b86811015610fdf5781548b820152908501908301610fc6565b505084890196505b50949897505050505050505056fea264697066735822122027f276feeeaa23c8b4b313b372ff3f449dcd0aad4c7572d756add4889f0bd7ce64736f6c63430008110033",
  "linkReferences": {},
  "deployedLinkReferences": {}
}